:020000040800F2
:1000000050090220AD0200088D2400081B1D0008C5
:10001000B90200085D070008412B0008000000003D
:10002000000000000000000000000000DF240008C5
:10003000E9070008000000008F240008812500085F
:10004000C7020008C7020008C7020008C70200086C
:10005000C7020008C7020008C7020008C70200085C
:10006000C7020008C7020008EB070008C702000823
:10007000C7020008C7020008C7020008C70200083C
:10008000C7020008C7020008C7020008C70200082C
:10009000C7020008C7020008C7020008F1070008ED
:1000A000C7020008C7020008C7020008C70200080C
:1000B000C7020008C7020008C7020008C7020008FC
:1000C000C7020008C7020008C7020008C7020008EC
:1000D000C7020008C92A0008C7020008C7020008B2
:1000E000C7020008C7020008C7020008C7020008CC
:1000F000C7020008C7020008C7020008C7020008BC
:10010000C7020008C7020008C7020008C7020008AB
:10011000C7020008C7020008C7020008C70200089B
:10012000C7020008C7020008C7020008C70200088B
:10013000C7020008C7020008C7020008C70200087B
:10014000C7020008C7020008C7020008C70200086B
:10015000C7020008C7020008C7020008C70200085B
:10016000C7020008C7020008C7020008C70200084B
:10017000C7020008C7020008C7020008000000000C
:10018000C7020008C7020008C7020008C70200082B
:10019000C7020008C7020008C7020008C70200081B
:1001A000C7020008C7020008C7020008C70200080B
:1001B000C7020008C7020008C7020008C7020008FB
:1001C000C7020008C702000800000000C7020008BC
:1001D000C7020008C7020008C7020008C7020008DB
:1001E000C7020008C7020008C7020008C7020008CB
:1001F000C7020008C702000800F002F800F047F844
:100200000AA090E8000C82448344AAF10107DA4571
:1002100001D100F03CF8AFF2090EBAE80F0013F07C
:10022000010F18BFFB1A43F001031847802D00008F
:10023000A02D0000103A24BF78C878C1FAD8520720
:1002400024BF30C830C144BF04680C607047000050
:100250000023002400250026103A28BF78C1FBD8CF
:10026000520728BF30C148BF0B607047642900F0B7
:100270009B80782900F0D480732900F00A82002046
:1002800070471FB502F058FE1FBD10B510BD00F03D
:1002900033FA1146FFF7F5FF02F036FD00F051FA90
:1002A00003B4FFF7F2FF03BC02F052FC0948804799
:1002B00009480047FEE7FEE7FEE7FEE7FEE7FEE748
:1002C000FEE7FEE7FEE7FEE704480549054A064B60
:1002D0007047000085250008F9010008500302203E
:1002E00050090220500502205005022070470000EE
:1002F0000FB4044910B503AA029800F0CFF910BC5E
:100300005DF814FB3400022070B50446856900686E
:10031000C10601D5302600E02026C00707D070BDF9
:10032000D4E9012130469047206A401C20626D1EAE
:10033000F6D570BD70B5044685690078C00707D151
:1003400070BDD4E9012120209047206A401C206222
:100350006D1EF6D570BD70B50C460546012A05D058
:100360002878800600D5EA69002302E0012305E031
:100370005B1C934202D2E05C0028F9D1A869E61820
:10038000C01AA861286A184428622846FFF7BCFFF3
:1003900004E0D5E9012114F8010B9047B442F8D3E9
:1003A0002846FFF7C7FF70BD2DE9F041064600243F
:1003B00010687529314616A510D0AFF300800028CB
:1003C00002DA404213A507E031688A0701D512A579
:1003D00002E0490704D511A5012401E0AFF3008034
:1003E00000210A2206F1240709E0B0FBF2FCB0FB71
:1003F000F2F302FB1C00303078541846491C0028E8
:10040000F3D123462A463046BDE8F04100F0D6B885
:10041000000000002D0000002B0000002000000064
:1004200070B504460D4621461068AFF30080218860
:10043000090502D50F4A7A4402E00E4A7A440E3288
:10044000002104F1240305E000F00F060009965D89
:100450005E54491C0028F7D120780023000704D5FA
:10046000702D02D009B1022311322046BDE8704040
:1004700000F0A4B8372B00002DE9F05F8946044650
:100480004FF0000ADFF824B1FB44C0F820A020465A
:10049000E168884700287DD0252806D0D4E90121CD
:1004A0009047206A401C2062F1E700255F46204605
:1004B000E16888472028064607DB312E05D2B819A7
:1004C00010F8200C08B10543F1E7A80701D525F085
:1004D0000405C4F81CA00027C4F818A02A2E09D0CF
:1004E000304602F02EFB38B304EB8708303EC8F8E4
:1004F000186019E059F8041B204604EB870291614B
:10050000E1688847012F064618D1E069002820DA03
:1005100025F020051DE0D8F8180000EB800006EB60
:1005200040003038C8F818002046E1688847064681
:1005300002F007FB0028EED1012F0AD02E2E08D1A1
:100540002046E16888477F1C0646022F45F02005BB
:10055000C4DBA069002803DA404245F00105A06130
:10056000E80701D025F01005A6B1A6F14100192831
:1005700002D8203645F400654A46314620462560BB
:100580004D46FFF773FE60B1012807D0ED1D25F041
:10059000070000E007E000F1080978E705F1040929
:1005A00075E730467AE7206ABDE8F09F0D2B000022
:1005B00002F080BB70477047704770472DE9F047E5
:1005C0000D4699469246044600F1240801688806C3
:1005D00004D5E06921F01001216000E00120A8426B
:1005E00001DD471B00E00027A1697A1902EB090031
:1005F000081AA0612078C00602D42046FFF784FEC6
:10060000002608E0D4E901211AF806009047206A84
:10061000401C761C20624E45F4DB2078C0060AD5CB
:100620002046FFF771FE06E0D4E901213020904713
:10063000206A401C2062381EA7F10107F4DC07E0A5
:10064000D4E9012118F805009047206A401C206277
:10065000281EA5F10105F3DC2046FFF76BFE20788C
:10066000000602D50220BDE8F0870120FBE710B5A7
:10067000436913B1AFF3008001E0FFF76CFE012086
:1006800010BD127800F124010A7000224A70012284
:10069000EDE711684FF0FF32E9E70000074B70B556
:1006A0000D467B4400F011F80446284600F020F87F
:1006B00010B14FF0FF3070BD204670BD0F26000016
:1006C00001694A1C02610878704700B58FB0CDE916
:1006D00001310021059105497944CDE90310114606
:1006E0006846FFF7C9FE0FB000BD0000E5FFFFFF41
:1006F000007B00F080007047754600F02BF8AE4696
:1007000005006946534620F00700854618B020B51D
:10071000FFF7DAFDBDE820404FF000064FF000077C
:100720004FF000084FF0000B21F00701AC46ACE899
:10073000C009ACE8C009ACE8C009ACE8C0098D4606
:10074000704710B50446AFF300802046BDE8104066
:10075000FFF7A6BD00487047EC020220FEE700004C
:1007600070B4BFF34F8FBFF36F8F1A49002008603A
:10077000194D296841F400312960BFF34F8FBFF351
:100780006F8F16490860BFF34F8F081F006843F64C
:10079000FF76134AC0F34E3CC0F3C90406EA4C117D
:1007A000204641EA80731360401EFAD2BCF1010C6E
:1007B000F4D2BFF34F8F286840F480302860BFF335
:1007C0004F8FBFF36F8F0748016841F0040101604C
:1007D00070BC704750EF00E014ED00E084ED00E0E5
:1007E00060EF00E09CEF00E07047102000F024B9BB
:1007F000202010B500F020F9402000F01DF98020E5
:1008000000F01AF94FF4807000F016F9BDE81040BE
:100810004FF4007000F010B910B586B00446002007
:10082000039004902048016841F0040101600168D0
:1008300001F004010591016841F080010160016847
:1008400001F080010591016841F00201016000683A
:10085000694600F00200059041F6F07000901348E0
:10086000019001200290124800F0F2F8114A002194
:1008700002EB011354F82100D860481CC1B20929C9
:10088000F6D301220A20114600F09EFC0A2000F057
:100890008EFC01221720114600F096FC172000F074
:1008A00086FC06B010BD0000303802400000211068
:1008B000000802404000022090F83510022903D0C1
:1008C0008021416501207047052180F835100068BE
:1008D000016821F0010101600020704770B55149A5
:1008E0003022044650A0FFF703FD514EB4F5807F3F
:1008F000504D5FD015DC102C32D0202C3ED0402C37
:100900004AD0802C18BF70BD0A2002F0ADF910212A
:10091000304600F0BFF9002818BF70BDE86BE0B9A1
:1009200070BDB4F5007F53D0B4F5806F5ED0B4F5E0
:10093000006F69D0B4F5805F18BF70BD0A2002F067
:1009400093F91021304600F0A5F9002818BF70BDBA
:10095000D5F88C00002808BF70BDBDE87040004786
:100960000A2002F081F91021304600F093F90028A6
:1009700018BF70BDE8680028EFD170BD0A2002F0F2
:1009800073F92021304600F085F9002818BF70BDAA
:10099000E8690028E1D170BD0A2002F065F9402124
:1009A000304600F077F9002818BF70BDE86A0028CB
:1009B000D3D170BD0A2002F057F91021304600F063
:1009C00069F9002818BF70BDE86C0028C5D170BD5A
:1009D0000A2002F049F91021304600F05BF90028A6
:1009E00018BF70BDE86D0028B7D170BD0A2002F0B5
:1009F0003BF91021304600F04DF9002818BF70BDBA
:100A0000E86E0028A9D170BD0A2002F02DF910214E
:100A1000304600F03FF9002818BF70BDE86F00288D
:100A20009BD170BD5A2F000825732C25640D0A0038
:100A3000000802404000022004490A68024208BF40
:100A4000704710B50860FFF749FF10BD143C014026
:100A50002DE9F84FDFF830920022DFF828820F27C7
:100A600009F1040A4FF0010E0B680EFA02F52B4053
:100A7000AB4240F00181D1F804C0BCF1020F18BFB5
:100A8000BCF1120F15D14FEAD20C00EB8C0CDCF844
:100A900020604FEA42744FEAD46407FA04FB26EA66
:100AA0000B06D1F810B00BFA04F444EA0604CCF8B3
:100AB000204006684FEA420C91F804B04FF003045E
:100AC0000BF0030B04FA0CF40BFA0CFB26EA0406F9
:100AD0004BEA060606604E68012E18BF022E03D0B0
:100AE000112E18BF122E14D18668D1F80CB026EA48
:100AF00004060BFA0CFB4BEA06068660466826EAFB
:100B000005050E79C6F3001606FA02F646EA050553
:100B10004560C56825EA04048D6805FA0CFC4CEABA
:100B2000040CC0F80CC0D1F804C01CF0805F7CD06D
:100B3000D8F800C04CF4804CC8F800C0D8F800C009
:100B40000CF4804CCDF800C022F0030C0CF1804571
:100B500005F59835D5F808C84FEA82744FEA147441
:100B600007FA04F62CEA0606A0F1804CBCF5003C1E
:100B700048D0A0F1804CBCF5013C08BF4FF0010CFF
:100B800040D0A0F1804CBCF5023C08BF4FF0020CF5
:100B900038D0A0F1804CBCF5033C08BF4FF0030CEB
:100BA00030D0A0F1804CBCF5043C08BF4FF0040CE1
:100BB00028D0A0F1804CBCF5053C08BF4FF0050CD7
:100BC00020D0A0F1804CBCF5063C08BF4FF0060CCD
:100BD00018D0A0F1804CBCF5073C08BF4FF0070CC3
:100BE00010D0A0F1804CBCF5083C08BF4FF0080CB9
:100BF00008D0A0F1804CBCF5093C0CBF4FF0090CAB
:100C00004FF00A0C0CFA04FC4CEA060CC5F808C8B4
:100C1000D9F800C04C682CEA030C14F4803F18BFCC
:100C20004CEA030CC9F800C000E025E0DAF800C087
:100C30004C682CEA030C14F4003F18BF4CEA030C78
:100C4000CAF800C0114CD4F800C04D682CEA030C5F
:100C500015F4801F18BF4CEA030CC4F800C00C4CFC
:100C6000D4F800C04D682CEA030C15F4001F18BF1F
:100C70004CEA030CC4F800C0521C102AFFF4F4AE76
:100C8000BDE8F88F44380240003C0140083C014078
:100C90000C3C01400069084018BF012070474269C0
:100CA000514041617047002A08BF090481617047C3
:100CB00001480068704700002800022090F8412099
:100CC000202A24D190F84020012A20D0012280F847
:100CD0004020242280F841200268136823F0010399
:100CE00013600268136823F480531360026813686A
:100CF0001943116001680A6842F001020A6020216C
:100D000080F84110002180F840100846704702200A
:100D1000704790F84120202A22D190F84020012AE3
:100D20001ED0012280F84020242280F84120026851
:100D3000136823F0010313600268136823F47063DF
:100D400043EA0121116001680A6842F001020A6069
:100D5000202180F84110002180F84010084670479B
:100D600002207047002804BF0120704770B5044678
:100D700090F84100002520B9204684F8405000F04A
:100D8000E5F9242084F841002068016821F0010180
:100D900001602168606820F07060086120688168E7
:100DA00021F400418160A06840B1E16801290CBFD5
:100DB00040F4004040F4044021688860E068022864
:100DC00002D12168800248602068416841F40041F6
:100DD00041F000714160D4E904010843A16940EA8F
:100DE00001202168C860D4E9070108432168086030
:100DF0002068016841F0010101606564202084F8E9
:100E00004100256384F84250002070BD2DE9FF4F5A
:100E100083B0044690F841009A469346DDE9118775
:100E2000DDF84090202840F0BC80B9F1000F18BFD9
:100E3000B8F1000F7ED094F8400001287BD001204B
:100E400084F84000FFF734FF012205461923009083
:100E5000D103204601F000F900286DD1222084F84A
:100E60004100402084F8420000266664C4F82490C3
:100E7000A4F82A80534666635A4604992046CDE971
:100E8000007501F05BF848B1606C84F8406004289C
:100E90000CBF0120032007B0BDE8F08F618D4FF437
:100EA00010504FF0FF08FF290AD9A4F828804FF00E
:100EB0008073049942460090204601F0B7F80AE09A
:100EC000618D4FF0007321850090204694F8282012
:100ED000049901F0ABF800223B460421204600951E
:100EE00001F0BAF8002842D12068416A606A421CC9
:100EF00062620170208D401E0004000C2085618D0F
:100F0000A1F10101618526D1608D20B300223B460D
:100F100080212046009501F09FF868B9608DFF2878
:100F20000ED9A4F828804FF08073049942462046D9
:100F3000009602E01FE034E019E001F077F80AE0E3
:100F4000608D4FF0007320852046009694F828208D
:100F5000049901F06BF8608D0028BCD12A4639460F
:100F6000204601F0A9F850B1606C042803D007B006
:100F70000320BDE8F08F07B00120BDE8F08F2068A6
:100F80002021C16120684268084B1A40426084F801
:100F9000411084F84260002084F8406007B0BDE84A
:100FA000F08F07B00220BDE8F08F000000E800FEDF
:100FB0002DE9FF4F83B0044690F841009A469346CE
:100FC000DDE91187DDF84090202840F0B880B9F1C4
:100FD000000F18BFB8F1000F7ED094F84000012830
:100FE0007BD0012084F84000FFF762FE0122054615
:100FF00019230090D103204601F02EF8002843D198
:10100000212084F84100402084F8420000266664D4
:10101000C4F82490A4F82A80534666635A4604997B
:101020002046CDE9007500F0C5FF48B1606C84F83A
:10103000406004280CBF0120032007B0BDE8F08FFA
:10104000608D4FF0FF08FF280AD9A4F828804FF0E0
:101050008073049942462046009600F0E7FF0AE0BC
:10106000608D4FF0007320852046009694F828206C
:10107000049900F0DBFF2A463946204601F048F883
:1010800018B1606C042844D03FE0606A411C616282
:10109000216800788862608D401E6085208D401E2A
:1010A0000004000C208524D1608D10B300223B4643
:1010B00080212046009500F0CFFF30BB608DFF28D7
:1010C0000CD9A4F828804FF080730499424620463A
:1010D000009600F0ABFF0CE01BE030E0608D4FF0BD
:1010E000007320852046009694F82820049900F08B
:1010F0009DFF608D0028BED12A463946204600F06B
:10110000DBFF50B1606C042803D007B00320BDE8BA
:10111000F08F07B00120BDE8F08F20682021C16169
:1011200020684268084B1A40426084F8411084F8F5
:101130004260002084F8406007B0BDE8F08F07B03F
:101140000220BDE8F08F000000E800FE70470000BC
:1011500002480168491C0160704700002800022015
:10116000074810B5016841F400710160052000F0E6
:101170005DF80F2000F006F800F018F8002010BD10
:10118000003C024010B5044607484FF47A720068EC
:10119000B0FBF2F000F0C6FB00222146501E00F02A
:1011A00013F8002010BD0000240002207047012227
:1011B00000F01F0102FA01F14009800000F1E02077
:1011C000C0F8001170470000174B4DF8044D1B6824
:1011D000C3F30223C3F1070CBCF1040F88BF4FF027
:1011E000040C1C1D072C34BF0023DB1E012404FA51
:1011F0000CFCACF1010C0CEA0101994004FA03F378
:101200005B1E1A40114300284FEA0111B8BF00F0DD
:101210000F0000F1E020B4BF80F8141D80F8001426
:101220005DF8044B704700000CED00E0074A00F049
:10123000070011684FF6FF03194041EA002040F013
:10124000FD7040F080601060704700000CED00E021
:101250001C4838B5016841F08051016000681A4CA3
:1012600000F080500090206840F480302060FFF74C
:101270001FFD0546606810F4803F09D1FFF718FD97
:10128000401BB0F57A7F14D8606810F4803FF5D029
:10129000206840F400302060FFF70AFD05466068D2
:1012A00010F4003F0BD1FFF703FD401BB0F57A7F30
:1012B00001D9032038BD606810F4003FF3D000204E
:1012C00038BD000040380240007000402DE9F04772
:1012D000DFF8688104460D46D8F8000000F00F00E2
:1012E000A8420CD2D8F8000020F00F002843C8F81C
:1012F0000000D8F8000000F00F00A84270D120785C
:101300004F4F10F0020F05D03868A16820F0F000B0
:1013100008433860207810F0010F4ED060684949CA
:10132000012820D00968022822D011F0020F57D0DE
:10133000396821F0030108433860FFF7B9FC06461D
:10134000606841F28839012816D00228386800F018
:101350000C0021D0F8B1FFF7ABFC801B484528D921
:101360000320BDE8F087096811F4003FE0D137E0C1
:1013700011F0007FDCD133E0386800F00C00042865
:101380001BD0FFF795FC801B4845E9D8386800F072
:101390000C000428F5D110E008280ED0FFF788FCD7
:1013A000801B4845DCD8386800F00C000828F5D1CF
:1013B00003E0386810F00C0FCDD1D8F8000000F031
:1013C0000F00A8420FD9D8F8000020F00F002843E2
:1013D000C8F80000D8F8000000F00F00A84202D0C2
:1013E0000120BDE8F087207810F0040F05D03868A0
:1013F000E16820F4E05008433860207810F0080FCE
:1014000006D03868216920F4604040EAC1003860A5
:1014100000F04EF83968F02292FAA2F201F0F001E1
:10142000B2FA82F2D140084A515CC84007490860CC
:101430000F20FFF7A7FE0020BDE8F087003C024028
:101440000838024000380240422F000824000220E1
:1014500008480949006809684FF4E05292FAA2F27C
:1014600001F4E051B2FA82F2D140044A515CC84022
:10147000704700002400022008380240522F000864
:1014800008480949006809684FF4604292FAA2F2DC
:1014900001F46041B2FA82F2D140044A515CC84082
:1014A000704700002400022008380240522F000834
:1014B0002148006810F00C01204808BF7047DFF891
:1014C00080C0042904BF60467047082918BF7047D0
:1014D0004DF8044D1B4A1168136801F03F0113F4E5
:1014E000800F47F6C0730BD0BCFBF1F011681940B8
:1014F00093FAA3F3B3FA83F3D94000FB01F00AE0B7
:10150000B0FBF1F01168194093FAA3F3B3FA83F337
:10151000D94000FB01F011684FF440325DF8044BF4
:1015200092FAA2F201F44031B2FA82F2D140491C9F
:101530004900B0FBF1F07047083802400024F40085
:1015400040787D01043802402DE9F84FDFF8A88388
:1015500004460078A8F1040710F0010FA7F1040574
:101560005AD0D8F8000000F00C00042809D0D8F8B0
:10157000000000F00C0008280CD1386810F4800F2F
:1015800008D0286810F4003F46D06068002800F0BA
:10159000AF8141E06068B0F5803F04BF286840F447
:1015A00080300AD010B1B0F5A02F11D0286820F4F7
:1015B00080302860286820F4802028606068D0B1DE
:1015C000FFF776FB0646286810F4003F08D023E0BA
:1015D000286840F480202860286840F48030ECE7D8
:1015E000FFF766FB801B642800F22581286810F451
:1015F000003FF5D010E0FFF75BFB0646286810F4CB
:10160000003F09D0FFF754FB801B642800F21381D0
:10161000286810F4003FF5D1207810F0020F50D068
:10162000D8F800004FF0F80910F00C0F18D0D8F8D7
:10163000000000F00C00082804BF386810F4800F88
:101640000ED0E0680028286828D040F0010028600B
:10165000FFF72EFB0646286810F0020F09D011E0B4
:10166000286810F0020F1CBFE06801280AD000F0C3
:101670003FB9FFF71DFB801B02287DD8286810F0BA
:10168000020FF6D0286899FAA9F22169B2FA82F21B
:1016900020F0F80091400843286012E020F001009B
:1016A0002860FFF705FB0646286810F0020F08D0F7
:1016B000FFF7FEFA801B02285ED8286810F0020FA0
:1016C000F6D1207810F0080F33D0DFF8309260693F
:1016D0000028D9F8000016D040F00100C9F8000039
:1016E000FFF7E6FA0646D9F8000010F0020F20D105
:1016F000FFF7DEFA801B02283ED8D9F8000010F070
:10170000020FF5D015E020F00100C9F80000FFF746
:10171000CFFA0646D9F8000010F0020F09D0FFF703
:10172000C7FA801B022827D8D9F8000010F0020F52
:10173000F5D1207810F0040F63D07148016841F0B2
:101740008051016000686F4E00F08050009030685A
:1017500040F480703060FFF7ABFA8146306810F4D7
:10176000807F0BD1FFF7A4FAA0EB0900642862D8B0
:10177000306810F4807F00E05DE0F3D0A068624E36
:10178000012804BF306840F0010009D008B10528E5
:1017900013D0306820F001003060306820F0040081
:1017A0003060A06841F2883AD0B1FFF781FA8146F3
:1017B000306810F0020F08D023E0306840F00400D9
:1017C0003060306840F00100EAE7FFF771FAA0EB03
:1017D000090050452FD8306810F0020FF5D010E006
:1017E000FFF766FA8146306810F0020F09D0FFF764
:1017F0005FFAA0EB090050451DD8306810F0020FC9
:10180000F5D1A069E8B3D8F8001001F00C0108295F
:101810006ED00228286820F0807028600ED0FFF774
:1018200047FA0446286810F0007F5ED0FFF740FAC0
:10183000001B022855D90320BDE8F88FFFF738FABE
:101840000646286810F0007F08D0FFF731FA801BA9
:101850000228F0D8286810F0007FF6D1D4E90701FB
:1018600047F6C0724FF0FF3392FAA2F20843616A62
:10187000B2FA82F29140A26A03EB52024FF4403373
:1018800000E032E093FAA3F3B3FA83F39A401143F2
:101890004FF070620843E16A92FAA2F2B2FA82F261
:1018A00091404FF0E0420843216B92FAA2F2B2FA63
:1018B00082F2914008433860286840F080702860C8
:1018C000FFF7F6F90446286810F0007F0DD1FFF706
:1018D000EFF9001B0228AED8286810F0007FF6D080
:1018E00003E0286810F0007FA0D10020BDE8F88F49
:1018F0000120BDE8F88F000008380240743802402B
:101900004038024000700040703802404FF0E02143
:10191000042808690CBF40F0040020F004000861AE
:1019200070470000401EB0F1807F24BF0120704747
:101930004FF0E0214861F020044A82F8140D0020A5
:101940008861072008610020704700000FE000E078
:101950007047000070B501680446C8690A688B6862
:1019600010F00F0F4FF0200551D040F2011C13EA88
:101970000C0F7DD010F0010F18BF12F4807F07D03C
:101980004FF0010CC1F820C0E16E41F00101E166A9
:1019900010F0020F18BF13F0010F08D0D4F800C0E8
:1019A0000221CCF82010E16E41F00401E16610F054
:1019B000040F18BF13F0010F08D0D4F800C00421A1
:1019C000CCF82010E16E41F00201E16610F0080F42
:1019D0000CD002F0200103F00103194306D0236864
:1019E00008211962E16E41F00801E166E16E00290B
:1019F00008BF70BD10F0200F1EBF12F0200F204650
:101A000000F093FEE06E10F0080F10D10AE010F025
:101A1000200F18BF12F0200F39D02046BDE87040CB
:101A200000F083BE2068806810F0400F29D0206845
:101A3000016821F4907101602068816821F0010142
:101A4000816084F86A502068816811F0400F14D0DA
:101A5000816821F040018160606E70B12F4901659D
:101A6000606EFEF729FF002808BF70BD606E00E0C1
:101A70000DE0016DBDE8704008472046FFF768FFA4
:101A800070BD2046FFF764FF0020E06670BD10F0D7
:101A9000800F18BF12F0800F2FD094F86900212812
:101AA00018BF70BDB4F85200A0B1A068B0F5805F57
:101AB00004BF20690028E06C16D000F10101E16448
:101AC000216800788862B4F85200A0F10100A4F8FF
:101AD000520070BD086820F080000860206801682E
:101AE00041F04001016070BD0088C0F308008862C9
:101AF000E06C00F10200E064E5E710F0400F14BF75
:101B000012F0400F70BD20460A6822F040020A60C1
:101B100084F8695000F000F970BD00001727000834
:101B2000002804BF0120704710B5044690F86900F2
:101B300028B9002084F86800204600F029F8242005
:101B400084F869002068016821F0010101602046E5
:101B500000F02CFE012808BF10BD606A00281CBFE1
:101B6000204600F03BFD2068416821F4904141602F
:101B70002068816821F02A0181602068016841F0B5
:101B8000010101602046BDE8104000F094BD000056
:101B900030B50446006887B0A0F18041B1F58831C6
:101BA0001CBF07B030BD1B48016841F00101016056
:101BB000006800F0010005901748016841F010012D
:101BC000016000680121154D00F0100005904FF4F0
:101BD000007000900220CDE90101039007206946C2
:101BE00004902846FEF734FF2815694600902846E1
:101BF000FEF72EFF2068016841F0200101602520DA
:101C0000FFF7D5FA032225201146FFF7DDFA07B0CA
:101C100030BD00003038024044380240000002402D
:101C20002DE9F84F044690F86A00984616460D468E
:101C300020286CD1002D12BF002E0120BDE8F88FA6
:101C400094F86800012862D0012084F868004FF001
:101C50000009C4F86C90222084F86A00FFF728F885
:101C6000A4F858608246A4F85A60FF21A068B0F535
:101C7000805F05D07F2250B1B0F1805F0CD012E0C0
:101C80002069002808BF40F2FF1002D109E0206956
:101C9000E8B9A4F85C1006E02069002818BF3F20CE
:101CA00015D0A4F85C00B4F85C60F7B2B4F85A0040
:101CB00000225346401EA4F85A0020212046CDF8A9
:101CC000008000F0C7FE28B10320BDE8F88FA4F81B
:101CD0005C20E8E7A068B0F5805F04BF20690028B9
:101CE0002068406A19BF384005F8010B304025F8DC
:101CF000020BB4F85A000028D8D14FF0200084F825
:101D00006A004FF0000084F86890BDE8F88F4FF04B
:101D10000200BDE8F88F70477047FEE72DE9F041FB
:101D20000F4E002484B025464FF47A774FF0010817
:101D300016EB04104FF080028DF80C5008D003A968
:101D40000297CDE90018017901230068FFF730F907
:101D5000601CC4B2092CEBD304B0BDE8F0810000D4
:101D6000400002202DE9F04FDFF8B0800025012669
:101D70004FF06C0985B04FF0030A4FF47A774FF0BB
:101D8000180B18EB05144FF080028DF80C6008D08A
:101D900003A80297CDE90006217901232068FFF707
:101DA00007F981228DF80C9044B103A80297CDE980
:101DB0000006217901232068FFF7FAF880228DF8C8
:101DC0000CA044B103A80297CDE9000621790123B4
:101DD0002068FFF7EDF882228DF80CB044B103A81B
:101DE0000297CDE90006217901232068FFF7E0F88A
:101DF000872202208DF80C0044B103A80297CDE998
:101E00000006217901232068FFF7D2F8681CC5B2CB
:101E1000092DB6D305B0BDE8F08F000040000220C8
:101E2000002804BFFF2070474DF804ED85B00A4636
:101E3000012303A94FF47A7CCDF808C0CDE9001343
:101E40000179006841F00101FEF7E0FF9DF80C0008
:101E500005B05DF804FB002808BF704707B584B0E3
:101E60000A46012306A94FF47A7CCDF808C0CDE9D3
:101E7000001301790068FFF79BF800280CBF0120D0
:101E8000002007B05DF804FB01688A6912F0020FB8
:101E90001CBF00228A620068816911F0010F18BF1F
:101EA0007047816941F00101816170472DE9F0417E
:101EB000044600680D461646816911F0100F04BFF4
:101EC0000020BDE8F08180694FF000074FF0200846
:101ED00010F0200F16D1B5F1FF3F0ED025B1FEF75F
:101EE000E7FE801BA84208D984F8418084F842703C
:101EF000032084F84070BDE8F0812068806910F00C
:101F0000200FE8D021681020C8612068C0F81C802C
:101F10002046FFF7B9FF20684168074A1140416039
:101F20000420606484F8418084F84270012084F8C1
:101F30004070BDE8F081000000E800FE2DE9F843A4
:101F4000164604464FF400501F46DAB200900023B4
:101F50002046DDE9089800F069F8424649462046E7
:101F600000F0D6F818B1606C04280FD01FE0012FE4
:101F7000F5B20ED02168300A8862424649462046B2
:101F800000F0C6F828B1606C042810D10120BDE82B
:101F9000F88320688562002240214B462046CDF818
:101FA000008000F059F8002808BFBDE8F88303203E
:101FB000BDE8F8832DE9F843044616464FF4005077
:101FC0001F46DAB20090C3022046DDE9089800F00F
:101FD0002DF842464946204600F09AF818B1606C48
:101FE00004280FD01FE0012FF5B20ED02168300A6F
:101FF000886242464946204600F08AF828B1606C63
:10200000042810D10120BDE8F883206885620022F1
:1020100080214B462046CDF8008000F01DF80028B6
:1020200008BFBDE8F8830320BDE8F88330B400683A
:10203000029CD0F804C0C1F30901064D41EA0241F7
:10204000194321430CEA050C41EA0C01416030BC04
:1020500070470000009800FC2DE9F041044600683C
:102060001D461746069E8846806931EA00000CBF6F
:1020700001200020B8421CD1B5F1FF3F10D025B19E
:10208000FEF716FE801BA8420AD9202084F84100E2
:10209000002084F8420084F840000320BDE8F0816D
:1020A0002068806938EA00000CBF01200020B84297
:1020B000E2D00020BDE8F08170B504460068164605
:1020C0000D46806910F0200F20D132462946204667
:1020D000FFF7ECFE08B1012070BD25B1FEF7E8FD69
:1020E000801BA8420DD9606C40F020006064202065
:1020F00084F84100002084F8420084F84000032066
:1021000070BD2068806910F0200FDED0002070BD07
:1021100070B50446006816460D46806910F0020F3F
:1021200023D1324629462046FFF7C0FE08B10120E0
:1021300070BDB5F1FF3F13D025B1FEF7B9FD801B8F
:10214000A8420DD9606C40F020006064202084F823
:102150004100002084F8420084F84000032070BD54
:102160002068806910F0020FDBD0002070BD0000F5
:102170004E482DE9F047016886B041F080010160CA
:10218000016801F080010591016841F002010160E0
:10219000006800F0020005904548016841F4001114
:1021A0000160016801F400110591016841F48001AA
:1021B0000160016801F480010591016841F40001AA
:1021C0000160006812274FF003084FF0040900F483
:1021D000000005904FF4407069460125CDF810903D
:1021E000CDE900073348CDE90258FEF731FC33480A
:1021F0000024334E3049C0E90245046144618461E2
:10220000C4610462C0E90016FEF7ACFD2B48002152
:10221000FEF754FD29480021FEF77BFDDFF8A4A05E
:102220003020CDE90007CDE9025869465046CDF887
:102230001090FEF70DFC25492348C1E902450C61C9
:102240004C618C61CC610C62C1E900060846FEF766
:1022500089FD1E480021FEF731FD1C480021FEF7D4
:1022600058FD4FF4C0706946CDE90007CDE902582A
:102270005046CDF81090FEF7EBFB16481449C0E924
:102280000245046144618461C4610462C0E90016CE
:10229000FEF768FD0F480021FEF710FD0D480021F4
:1022A000FEF737FD06B0BDE8F08700003038024089
:1022B000403802400004024000540040080202205E
:1022C00068474020001C0240005800405402022091
:1022D000005C0040A00202201B4870B586B0016877
:1022E00041F001010160016801F0010105910168FF
:1022F00041F004010160016801F0040105910168E9
:1023000041F080010160006803250026694600F065
:102310008000059002200124CDE902050B48CDE99B
:102320000046FEF795FB60036946CDE900060848C4
:10233000CDE90245FEF78CFB0C200090054869466C
:10234000FEF786FB06B070BD303802400000024048
:1023500000080240001C02402DE9F041344C0126E7
:10236000344F0128DFF8D080344D08BF267001D0EB
:102370002078A8B108212846FEF78CFCB8B10421CA
:102380002846FEF787FC90B14FF400513846FEF71F
:1023900081FC60B101214046FEF77CFC012806D09B
:1023A00008212846FEF776FC01283ED12AE00A20C3
:1023B00000F05AFC0020207008212846FEF76AFC35
:1023C000002804BF0120BDE8F08104212846FEF763
:1023D00061FC002804BF0220BDE8F0814FF40051E9
:1023E0003846FEF757FC002804BF0320BDE8F08103
:1023F00001214046FEF74EFC012804BF0420BDE841
:10240000F08112E004212846FEF744FC01280CD19B
:1024100041033846FEF73EFC012806D10121404623
:10242000FEF738FC002808BF26700020BDE8F081C8
:10243000380002200008024000000240001C024058
:10244000104810B586B0016841F0020101600068D3
:1024500001210D4C00F0020005900320CDE90001A0
:10246000CDE9021069462046FEF7F2FA0122204625
:102470001146FEF718FC012220460221FEF713FC4C
:1024800006B010BD3038024000040240704770476B
:1024900010B518220446E121FFF7DDFC0322204697
:1024A000BDE81040C021FFF7D6BC70B50D0A144638
:1024B000CAB206468321FFF7CEFC84212A46304665
:1024C000FFF7C9FCE2B23046240A8521FFF7C3FCBE
:1024D00022463046BDE870408621FFF7BCBC7047FD
:1024E000DFF894C010B594B0DCF8004044F080549C
:1024F000CCF80040DCF800C00CF0805CCDF848C09F
:10250000DFF878C0DCF8004044F44044CCF80040E8
:10251000DCF800C002240CF4404CCDF848C04FF069
:10252000010CCDF800C04FF4803CCDF804C04FF44E
:10253000800CCDE90810CDE90A23CDE9064C6846A8
:10254000FFF702F800B1FEE7FEF782FE00B1FEE7FA
:102550000F20CDE90D0400200F904FF4A0501090F3
:102560004FF48050119007210DA8FEF7AFFE002810
:1025700004BF14B010BDFEE74038024000700040B8
:10258000FEF7E6BD0F48016841F4700101600E4896
:10259000016841F0010101600C4A002111600268EC
:1025A00022F4102222F080720260031D084A1A6091
:1025B000026822F48022026006480160580606493B
:1025C0000860704788ED00E000380240083802409B
:1025D000103000240C38024008ED00E090F8241080
:1025E00011F0010F06D001684A68836A22F40032B4
:1025F0001A434A6090F8241011F0020F06D00168C7
:102600004A68C36A22F480321A434A6090F8241060
:1026100011F0040F06D001684A68036B22F480228F
:102620001A434A6090F8241011F0080F06D0016890
:102630004A68436B22F400421A434A6090F824101F
:1026400011F0100F06D001688A68836B22F4805263
:102650001A438A6090F8241011F0200F06D0016808
:102660008A68C36B22F400521A438A6090F82410DF
:1026700011F0400F11D001684A68036C22F48012F7
:102680001A434A60016CB1F5801F06D101684A689F
:10269000436C22F4C0021A434A6090F8241011F0EF
:1026A000800F08BF704701684A68806C22F40022DE
:1026B000104348607047F8B500260446C666FEF72A
:1026C000F7FA0746206800686FF07E4510F0080FA3
:1026D00008D000223B464FF400112046009500F040
:1026E000B9F968B92068006810F0040F0AD0002218
:1026F0003B464FF480012046009500F0ABF908B14D
:102700000320F8BD202084F8690084F86A000020C6
:1027100084F86860F8BD10B5806B0021A0F85A10ED
:10272000A0F85210FFF714F910BD10B5B0F85C20F6
:1027300090F86A300168222B05D0886940F00800C3
:102740008861022010BD8368B3F5805F04BF036910
:10275000002B23D0496A01EA0202416D01F1010315
:1027600043650A70B0F85A10A1F101010904090C7F
:10277000A0F85A101CBF002010BD01680A6822F49E
:1027800090720A6001688A6822F001028A60202142
:1027900080F86A10FFF7BFFA002010BD436D496A48
:1027A00011401980416D891C4165DBE770B5044615
:1027B00080681021002223691546D4F81CC01843F4
:1027C000636943EA0C0303432068D0F800C09D4EC0
:1027D0000CEA060C4CEA0303036020684368D4F853
:1027E0000CC023F4405343EA0C034360236AA069FE
:1027F00003432068D0F808C02CF4306C4CEA030383
:1028000083602068904BA0F1804CBCF5883C23D0BD
:10281000A0F1804CBCF5884C29D0A0F1804CBCF5CF
:10282000904C2FD0A0F1804CBCF5984C35D0A0F145
:10283000804CBCF5A04C3BD0A0F1804CBCF58A3C50
:1028400044D0A0F1804CBCF5F04C4FD0A0F1804CAE
:10285000BCF5F84C58D06CE01B6813F0030343D070
:10286000012B63D0022B5FD0032B61D061E01B688A
:1028700013F00C0356D0042B58D0082B54D00C2B3B
:1028800056D056E01B6813F030034BD0102B4DD0C0
:10289000202B49D0302B4BD04BE01B6813F0C003EA
:1028A00040D0402B42D0802B3ED0C02B40D040E0C7
:1028B0001B6813F4407335D0B3F5807F36D0B3F581
:1028C000007F31D0B3F5407F32D032E01B6813F483
:1028D000406309D0B3F5806F28D0B3F5006F23D0E3
:1028E000B3F5406F24D024E0012122E01B6813F4EB
:1028F000405317D0B3F5805F18D0B3F5005F13D005
:10290000B3F5405F14D014E01B6813F4404309D0C2
:10291000B3F5804F0AD0B3F5004F05D0B3F5404F63
:1029200006D006E0002104E0022102E0042100E0DC
:102930000821E369B3F5004F08D009297FD2DFE809
:1029400001F046525E7E677E7E7E7400092935D294
:10295000DFE801F0050F1934213434342B00FEF781
:1029600077FD4100606801EB5001B1FBF0F082B2ED
:1029700025E0FEF785FD4100606801EB5001B1FBE9
:10298000F0F082B21BE06068304901EB5001B1FB0E
:10299000F0F082B213E0FEF78BFD4100606801EBBE
:1029A0005001B1FBF0F082B209E060684FF4803171
:1029B00001EB5001B1FBF0F082B200E0012522F002
:1029C0000F00C2F3420108432168C86038E0FEF7F7
:1029D0003FFD0146606801EB5001B1FBF0F021685A
:1029E00080B2C8602CE0FEF74BFD0146606801EB49
:1029F0005001B1FBF0F0216880B2C86020E061684E
:102A0000134A02EB5102B2FBF1F189B2C16017E047
:102A1000FEF74EFD0146606801EB5001B1FBF0F09E
:102A2000216880B2C8600BE009E061684FF40042A1
:102A300002EB5102B2FBF1F189B2C16000E0012565
:102A4000284670BDF369FFEF903802400048E80166
:102A50000024F4002DE9F041044600681E461746A4
:102A6000069D8846C06931EA00000CBF01200020A5
:102A7000B84226D1B5F1FF3F1AD025B1FEF718F9BB
:102A8000801BA84214D32068016821F4D071016032
:102A90002068816821F001018160202084F86900AC
:102AA00084F86A00002084F868000320BDE8F08103
:102AB0002068C06938EA00000CBF01200020B8423D
:102AC000D8D00020BDE8F0811A4838B50068C06948
:102AD00010F0200F28D0174801224FF47A7369466E
:102AE000FFF79EF8144A108810F4004F1CD19DF88F
:102AF000001010F4804F4FF0000305D00A2908BFE2
:102B000040F4004014D00EE00D2908BF40F480408E
:102B10000ED00A4CC0F30D0C401C80B2C72804F83C
:102B20000C10108000D913800248FEF713FF38BD47
:102B30001080F9E79801022030000220D000022026
:102B4000FEE730380A2801D2012070470020704784
:102B5000704700002DE9F04700270646942A0EBF73
:102B60004FF480344FF41400B0FBF2F451B101295A
:102B700008BFE40806D0022908BF240902D00329AF
:102B800002D00DE025460BE02F4A00201146E4FB61
:102B900002102E4A850911460020E4FB0210840928
:102BA0003046D421FFF73CF9D52180463046FFF767
:102BB00037F908EB0020DFF89880D621A8F800004C
:102BC0003046FFF72DF9D72181463046FFF728F927
:102BD00009EB002080B2A8F80200B8F8001000FB52
:102BE00005F001FB04F14FEA10400B0C1CBF810201
:102BF000B1FBF3F7791C49089A299CBF42F24812AD
:102C000043F6715116D9C3299CBF42F6372245F6C7
:102C100030310FD9E6299CBF41F6EF0242F6B95197
:102C200008D9B1F58A7F99BF40F6DF7241F69A1153
:102C30000022114603FB02F200FB112000F50040C8
:102C4000000CB060BDE8F0876D35788E511A1F9981
:102C50003C00022010B504460420FEF757FE014850
:102C6000046010BD2C000220F0B4002400289CBF9A
:102C7000F0BC70470E494FF47A724FF0E0260968B5
:102C800001FB02F5D6F814C00021B369B2699A427B
:102C9000FCD026BFACEB02073B449B1A19441346F9
:102CA000A942F3D3641C8442ECD3F0BC704700000B
:102CB0002C0002200349CA6912F0400FFBD0C2B2B7
:102CC0008A6270470010014010B507489422022123
:102CD000FFF740FF0448816804A0FDF709FBBDE849
:102CE00010400148FFF7D4BB400002206C696768C0
:102CF000742073656E736F72302076616C75653AFF
:102D00002025640D0A00000086B00025FDF728FD8F
:102D1000FEF726FA0923022219214FF4D870FFF793
:102D2000DFFBD820FFF796FF4FF4E13000F0F2F818
:102D3000FFF786FBFFF7D0FAFFF71AFA4048FDF7D6
:102D40006BFD40A0FDF7D4FAFFF70CF84A4F0024C2
:102D5000D22107EB0410FFF763F800F0F0022146E0
:102D600046A0FDF7C5FA601CC4B2092CF0D30024BC
:102D70004CF250324FF4FA6107EB0410FFF795FB69
:102D8000601CC4B2092CF3D3DFF81081DFF8109176
:102D90000020FFF7E1FA012802D0022835D03AE0FE
:102DA000A6B940A0FDF7A4FA0126FEF7DBFF002438
:102DB00045492320FDF7FCFB0A20FFF755FF601C67
:102DC000C4B2642CF4D341A0FDF792FA00249422FB
:102DD000022107EB0410FFF7BDFE601CC4B2092CF2
:102DE000F5D30DF1080CD7F88830BA6FB96EB86D0D
:102DF0008CE80F00B96CB86BCDE90001BB6A35A057
:102E0000BA69B968FDF774FA05E03CA0FDF770FAFD
:102E10000026FEF783FF0A20FFF726FF681CC5B2D5
:102E2000A8FB05106FF01801000900FB01F015EB7D
:102E30004000ADD1002548460221FDF730FFA7E74D
:102E4000000002202D2D2D2D2D2D2D2D2D2D2D2D44
:102E50002D2D2D2D6C696768742073656E736F72EC
:102E600020696E69742D2D2D2D2D2D2D2D2D2D2D9F
:102E70002D2D2D2D2D0D0A00400002204C69676874
:102E8000742053656E736F725B25645D2E49443AFE
:102E90003078253032580D0A000000001F85EB51B4
:102EA000000402406B6579302070726573732120D5
:102EB0007761697420706F776572206F6E2E2E2E89
:102EC0002E2E0D0A00000000340002203130302583
:102ED000250D0A006C75785B302D385D203D20256E
:102EE000642C25642C25642C25642C25642C2564F5
:102EF0002C25642C25642C25640A0D006B65793122
:102F00002070726573732120706F776572206F6611
:102F1000660D0A000749064AC1E9002000208860C2
:102F2000C860086188610C2048610846FEF7F8BD5A
:102F300000100140980102204FF04070E1EE100AAD
:102F400070470000000000000000010203040607B3
:102F50000809000000000102030448414C5F47508B
:102F6000494F5F455854495F43616C6C6261636BC4
:102F700000303132333435363738394142434445F5
:102F800046403058003031323334353637383961C5
:102F90006263646566403078000400000800000049
:102FA000000000000200010000100000CC2F00080B
:102FB00000000220D0000000340200089C3000080D
:102FC000D00002208008000050020008C92C000830
:102FD00000000000000000000000000000000000F1
:102FE00000000000000000000000000000000000E1
:102FF0000024F400000000000000000000000000B9
:103000000000000001000000000000000802022093
:103010005200000000000000000000000802022032
:103020007200000000000000000000000802022002
:103030009200000000000000000000005402022086
:1030400052000000000000000000000054020220B6
:103050007200000000000000000000005402022086
:10306000920000000000000000000000A00202200A
:10307000520000000000000000000000A00202203A
:10308000720000000000000000000000A00202200A
:0C309000920000000000000000000000A2
:04000005080001F9F5
:00000001FF
