:020000040800F2
:1000000000080220A9020008AD1E0008471A0008D7
:10001000B5020008D9060008992500080000000074
:10002000000000000000000000000000351F000874
:100030006507000800000000AF1E0008D91F000877
:10004000C3020008C3020008C3020008C30200087C
:10005000C3020008C3020008C3020008C30200086C
:10006000C3020008C3020008C3020008C30200085C
:10007000C3020008C3020008C3020008C30200084C
:10008000C3020008C3020008C3020008C30200083C
:10009000C3020008C3020008C3020008C30200082C
:1000A000C3020008C3020008C3020008C30200081C
:1000B000C3020008C3020008C3020008C30200080C
:1000C000C3020008C3020008C3020008C3020008FC
:1000D000C302000821250008C3020008C30200086B
:1000E000C3020008C3020008C3020008C3020008DC
:1000F000C3020008C3020008C3020008C3020008CC
:10010000C3020008C3020008C3020008C3020008BB
:10011000C3020008C3020008C3020008C3020008AB
:10012000C3020008C3020008C3020008C30200089B
:10013000C3020008C3020008C3020008C30200088B
:10014000C3020008C3020008C3020008C30200087B
:10015000C3020008C3020008C3020008C30200086B
:10016000C3020008C3020008C3020008C30200085B
:10017000C3020008C3020008C30200080000000018
:10018000C3020008C3020008C3020008C30200083B
:10019000C3020008C3020008C3020008C30200082B
:1001A000C3020008C3020008C3020008C30200081B
:1001B000C3020008C3020008C3020008C30200080B
:1001C000C3020008C302000800000000C3020008C8
:1001D000C3020008C3020008C3020008C3020008EB
:1001E000C3020008C3020008C3020008C3020008DB
:1001F000C3020008C302000800F002F800F044F84F
:100200000AA090E8000C82448344AAF10107DA4571
:1002100001D100F039F8AFF2090EBAE80F0013F07F
:10022000010F18BFFB1A43F001031847B82500005F
:10023000D8250000103A24BF78C878C1FAD85207F0
:1002400024BF30C830C144BF04680C607047000050
:100250000023002400250026103A28BF78C1FBD8CF
:10026000520728BF30C148BF0B607047642900F0B7
:100270007180782900F0AA80002070471FB502F035
:1002800083FA1FBD10B510BD00F0F4F91146FFF759
:10029000F5FF02F027FA00F012FA03B4FFF7F2FFBD
:1002A00003BC02F081F90000094880470948004773
:1002B000FEE7FEE7FEE7FEE7FEE7FEE7FEE7FEE716
:1002C000FEE7FEE704480549054A064B7047000073
:1002D000DD1F0008F90100080002022000080220CA
:1002E0000004022000040220704700000FB40449FB
:1002F00010B503AA029800F08FF910BC5DF814FB4A
:100300001000022070B5044685690068C10601D559
:10031000302600E02026C00707D070BDD4E90121B7
:1003200030469047206A401C20626D1EF6D570BD95
:1003300070B5044685690078C00707D170BDD4E95F
:10034000012120209047206A401C20626D1EF6D5B6
:1003500070BD00002DE9F0410646002410687529A3
:10036000314616A510D0AFF30080002802DA4042D3
:1003700013A507E031688A0701D512A502E04907F5
:1003800004D511A5012401E0AFF3008000210A2269
:1003900006F1240709E0B0FBF2FCB0FBF2F302FB2C
:1003A0001C00303078541846491C0028F3D12346ED
:1003B0002A463046BDE8F04100F0D4B80000000005
:1003C0002D0000002B0000002000000070B5044646
:1003D0000D4621461068AFF300802188090502D53B
:1003E0000F4A7A4402E00E4A7A440E32002104F1A8
:1003F000240305E000F00F060009965D5E54491CD9
:100400000028F7D120780023000704D5702D02D0F2
:1004100009B1022311322046BDE8704000F0A2B8B5
:10042000C42300002DE9F05F894604464FF0000A1E
:10043000DFF824B1FB44C0F820A02046E1688847DB
:1004400000287DD0252806D0D4E901219047206AD4
:10045000401C2062F1E700255F462046E16888479E
:100460002028064607DB312E05D2B81910F8200CDB
:1004700008B10543F1E7A80701D525F00405C4F844
:100480001CA00027C4F818A02A2E09D0304602F07C
:1004900084F838B304EB8708303EC8F8186019E0D8
:1004A00059F8041B204604EB87029161E1688847F4
:1004B000012F064618D1E069002820DA25F0200532
:1004C0001DE0D8F8180000EB800006EB4000303843
:1004D000C8F818002046E1688847064602F05DF833
:1004E0000028EED1012F0AD02E2E08D12046E16837
:1004F00088477F1C0646022F45F02005C4DBA06913
:10050000002803DA404245F00105A061E80701D068
:1005100025F01005A6B1A6F14100192802D8203611
:1005200045F400654A463146204625604D46FFF7B2
:100530009DFE60B1012807D0ED1D25F0070000E009
:1005400007E000F1080978E705F1040975E730468E
:100550007AE7206ABDE8F09F9A2300007047704751
:10056000704770472DE9F0470D469946924604467C
:1005700000F124080168880604D5E06921F0100123
:10058000216000E00120A84201DD471B00E00027B8
:10059000A1697A1902EB0900081AA0612078C00647
:1005A00002D42046FFF7AEFE002608E0D4E9012180
:1005B0001AF806009047206A401C761C20624E45BF
:1005C000F4DB2078C0060AD52046FFF79BFE06E044
:1005D000D4E9012130209047206A401C2062381E57
:1005E000A7F10107F4DC07E0D4E9012118F80500C0
:1005F0009047206A401C2062281EA5F10105F3DC0B
:100600002046FFF795FE2078000602D50220BDE8BF
:10061000F0870120FBE70000074B70B50D467B44D7
:1006200000F011F80446284600F020F810B14FF011
:10063000FF3070BD204670BDAF20000001694A1C2C
:1006400002610878704700B58FB0CDE90131002113
:10065000059105497944CDE9031011466846FFF735
:10066000E1FE0FB000BD0000E5FFFFFF007B00F0E2
:1006700080007047754600F02BF8AE4605006946CD
:10068000534620F00700854618B020B5FFF71AFE44
:10069000BDE820404FF000064FF000074FF0000883
:1006A0004FF0000B21F00701AC46ACE8C009ACE804
:1006B000C009ACE8C009ACE8C0098D46704710B568
:1006C0000446AFF300802046BDE81040FFF7E5BDCB
:1006D000004870479C010220FEE7000070B4BFF3A1
:1006E0004F8FBFF36F8F1A4900200860194D29689A
:1006F00041F400312960BFF34F8FBFF36F8F16496C
:100700000860BFF34F8F081F006843F6FF76134A57
:10071000C0F34E3CC0F3C90406EA4C11204641EA3E
:1007200080731360401EFAD2BCF1010CF4D2BFF307
:100730004F8F286840F480302860BFF34F8FBFF39D
:100740006F8F0748016841F00401016070BC704779
:1007500050EF00E014ED00E084ED00E060EF00E019
:100760009CEF00E0704790F83510022903D08021FB
:10077000416501207047052180F835100068016847
:1007800021F0010101600020704700002DE9F84FC1
:10079000DFF830920022DFF828820F2709F1040ADF
:1007A0004FF0010E0B680EFA02F52B40AB4240F001
:1007B0000181D1F804C0BCF1020F18BFBCF1120FC7
:1007C00015D14FEAD20C00EB8C0CDCF820604FEA1C
:1007D00042744FEAD46407FA04FB26EA0B06D1F808
:1007E00010B00BFA04F444EA0604CCF82040066882
:1007F0004FEA420C91F804B04FF003040BF0030BE6
:1008000004FA0CF40BFA0CFB26EA04064BEA060683
:1008100006604E68012E18BF022E03D0112E18BF9D
:10082000122E14D18668D1F80CB026EA04060BFA11
:100830000CFB4BEA06068660466826EA05050E793B
:10084000C6F3001606FA02F646EA05054560C568D5
:1008500025EA04048D6805FA0CFC4CEA040CC0F887
:100860000CC0D1F804C01CF0805F7CD0D8F800C068
:100870004CF4804CC8F800C0D8F800C00CF4804C90
:10088000CDF800C022F0030C0CF1804505F5983539
:10089000D5F808C84FEA82744FEA147407FA04F6D0
:1008A0002CEA0606A0F1804CBCF5003C48D0A0F133
:1008B000804CBCF5013C08BF4FF0010C40D0A0F1CA
:1008C000804CBCF5023C08BF4FF0020C38D0A0F1C0
:1008D000804CBCF5033C08BF4FF0030C30D0A0F1B6
:1008E000804CBCF5043C08BF4FF0040C28D0A0F1AC
:1008F000804CBCF5053C08BF4FF0050C20D0A0F1A2
:10090000804CBCF5063C08BF4FF0060C18D0A0F197
:10091000804CBCF5073C08BF4FF0070C10D0A0F18D
:10092000804CBCF5083C08BF4FF0080C08D0A0F183
:10093000804CBCF5093C0CBF4FF0090C4FF00A0C81
:100940000CFA04FC4CEA060CC5F808C8D9F800C03B
:100950004C682CEA030C14F4803F18BF4CEA030CDB
:10096000C9F800C000E025E0DAF800C04C682CEAC5
:10097000030C14F4003F18BF4CEA030CCAF800C083
:10098000114CD4F800C04D682CEA030C15F4801FFC
:1009900018BF4CEA030CC4F800C00C4CD4F800C0DB
:1009A0004D682CEA030C15F4001F18BF4CEA030C29
:1009B000C4F800C0521C102AFFF4F4AEBDE8F88F52
:1009C00044380240003C0140083C01400C3C0140DE
:1009D000002A08BF090481617047000001480068CF
:1009E000704700000400022090F84120202A24D102
:1009F00090F84020012A20D0012280F840202422B3
:100A000080F841200268136823F001031360026834
:100A1000136823F48053136002681368194311604C
:100A200001680A6842F001020A60202180F8411042
:100A3000002180F84010084670470220704790F867
:100A40004120202A22D190F84020012A1ED00122E4
:100A500080F84020242280F841200268136823F0A7
:100A6000010313600268136823F4706343EA0121F1
:100A7000116001680A6842F001020A60202180F8D2
:100A80004110002180F8401008467047022070474E
:100A9000002804BF0120704770B5044690F841005B
:100AA000002520B9204684F8405000F0E5F92420C4
:100AB00084F841002068016821F00101016021688B
:100AC000606820F0706008612068816821F400414E
:100AD0008160A06840B1E16801290CBF40F400408A
:100AE00040F4044021688860E068022802D121684F
:100AF000800248602068416841F4004141F0007183
:100B00004160D4E904010843A16940EA0120216859
:100B1000C860D4E9070108432168086020680168BB
:100B200041F0010101606564202084F841002563E3
:100B300084F84250002070BD2DE9FF4F83B0044679
:100B400090F841009A469346DDE91187DDF8409020
:100B5000202840F0BC80B9F1000F18BFB8F1000F99
:100B60007ED094F8400001287BD0012084F840001A
:100B7000FFF734FF0122054619230090D1032046D8
:100B800001F09AF800286DD1222084F8410040201D
:100B900084F8420000266664C4F82490A4F82A80F1
:100BA000534666635A4604992046CDE9007500F025
:100BB000F5FF48B1606C84F8406004280CBF012048
:100BC000032007B0BDE8F08F618D4FF410504FF057
:100BD000FF08FF290AD9A4F828804FF080730499F0
:100BE00042460090204601F051F80AE0618D4FF036
:100BF000007321850090204694F82820049901F084
:100C000045F800223B4604212046009501F054F8A7
:100C1000002842D12068416A606A421C6262017009
:100C2000208D401E0004000C2085618DA1F1010182
:100C3000618526D1608D20B300223B46802120466D
:100C4000009501F039F868B9608DFF280ED9A4F835
:100C500028804FF08073049942462046009602E0B7
:100C60001FE034E019E001F011F80AE0608D4FF068
:100C7000007320852046009694F82820049901F0FE
:100C800005F8608D0028BCD12A463946204601F07F
:100C900043F850B1606C042803D007B00320BDE8CE
:100CA000F08F07B00120BDE8F08F20682021C161DE
:100CB00020684268084B1A40426084F8411084F86A
:100CC0004260002084F8406007B0BDE8F08F07B0B4
:100CD0000220BDE8F08F000000E800FE2DE9FF4F84
:100CE00083B0044690F841009A469346DDE91187A7
:100CF000DDF84090202840F0B880B9F1000F18BF0F
:100D0000B8F1000F7ED094F8400001287BD001207C
:100D100084F84000FFF762FE012205461923009087
:100D2000D103204600F0C8FF002843D1212084F8D9
:100D30004100402084F8420000266664C4F82490F4
:100D4000A4F82A80534666635A4604992046CDE9A2
:100D5000007500F05FFF48B1606C84F840600428C3
:100D60000CBF0120032007B0BDE8F08F608D4FF06D
:100D7000FF08FF280AD9A4F828804FF0807304994F
:100D800042462046009600F081FF0AE0608D4FF059
:100D9000007320852046009694F82820049900F0DE
:100DA00075FF2A463946204600F0E2FF18B1606C14
:100DB000042844D03FE0606A411C616221680078E9
:100DC0008862608D401E6085208D401E0004000CEE
:100DD000208524D1608D10B300223B46802120461F
:100DE000009500F069FF30BB608DFF280CD9A4F896
:100DF00028804FF08073049942462046009600F008
:100E000045FF0CE01BE030E0608D4FF00073208563
:100E10002046009694F82820049900F037FF608D52
:100E20000028BED12A463946204600F075FF50B151
:100E3000606C042803D007B00320BDE8F08F07B032
:100E40000120BDE8F08F20682021C1612068426840
:100E5000084B1A40426084F8411084F84260002038
:100E600084F8406007B0BDE8F08F07B00220BDE80D
:100E7000F08F000000E800FE7047000002480168A3
:100E8000491C01607047000004000220074810B5AB
:100E9000016841F400710160052000F05DF80F2049
:100EA00000F006F800F018F8002010BD003C0240E9
:100EB00010B5044607484FF47A720068B0FBF2F0B0
:100EC00000F0C6FB00222146501E00F013F800205F
:100ED00010BD0000000002207047012200F01F0139
:100EE00002FA01F14009800000F1E020C0F8001191
:100EF00070470000174B4DF8044D1B68C3F30223E5
:100F0000C3F1070CBCF1040F88BF4FF0040C1C1D8B
:100F1000072C34BF0023DB1E012404FA0CFCACF1C7
:100F2000010C0CEA0101994004FA03F35B1E1A401C
:100F3000114300284FEA0111B8BF00F00F0000F183
:100F4000E020B4BF80F8141D80F800145DF8044B55
:100F5000704700000CED00E0074A00F00700116840
:100F60004FF6FF03194041EA002040F0FD7040F0C9
:100F700080601060704700000CED00E01C4838B540
:100F8000016841F08051016000681A4C00F0805007
:100F90000090206840F480302060FFF71FFD054678
:100FA000606810F4803F09D1FFF718FD401BB0F5D1
:100FB0007A7F14D8606810F4803FF5D0206840F440
:100FC00000302060FFF70AFD0546606810F4003F1E
:100FD0000BD1FFF703FD401BB0F57A7F01D9032049
:100FE00038BD606810F4003FF3D0002038BD000029
:100FF00040380240007000402DE9F047DFF868817A
:1010000004460D46D8F8000000F00F00A8420CD2AC
:10101000D8F8000020F00F002843C8F80000D8F8E6
:10102000000000F00F00A84270D120784F4F10F060
:10103000020F05D03868A16820F0F000084338603E
:10104000207810F0010F4ED060684949012820D067
:101050000968022822D011F0020F57D0396821F018
:10106000030108433860FFF7B9FC0646606841F2A7
:101070008839012816D00228386800F00C0021D0E9
:10108000F8B1FFF7ABFC801B484528D90320BDE829
:10109000F087096811F4003FE0D137E011F0007FDC
:1010A000DCD133E0386800F00C0004281BD0FFF7D7
:1010B00095FC801B4845E9D8386800F00C000428EE
:1010C000F5D110E008280ED0FFF788FC801B4845BA
:1010D000DCD8386800F00C000828F5D103E0386847
:1010E00010F00C0FCDD1D8F8000000F00F00A8428E
:1010F0000FD9D8F8000020F00F002843C8F80000EE
:10110000D8F8000000F00F00A84202D00120BDE88E
:10111000F087207810F0040F05D03868E16820F4DB
:10112000E05008433860207810F0080F06D0386887
:10113000216920F4604040EAC100386000F04EF8B8
:101140003968F02292FAA2F201F0F001B2FA82F2CA
:10115000D140084A515CC840074908600F20FFF79A
:10116000A7FE0020BDE8F087003C0240083802409E
:101170000038024092270008000002200848094970
:10118000006809684FF4E05292FAA2F201F4E051CB
:10119000B2FA82F2D140044A515CC8407047000064
:1011A0000000022008380240A22700080848094928
:1011B000006809684FF4604292FAA2F201F46041BB
:1011C000B2FA82F2D140044A515CC8407047000034
:1011D0000000022008380240A227000821480068C9
:1011E00010F00C01204808BF7047DFF880C00429C8
:1011F00004BF60467047082918BF70474DF8044D7A
:101200001B4A1168136801F03F0113F4800F47F681
:10121000C0730BD0BCFBF1F01168194093FAA3F333
:10122000B3FA83F3D94000FB01F00AE0B0FBF1F020
:101230001168194093FAA3F3B3FA83F3D94000FB82
:1012400001F011684FF440325DF8044B92FAA2F2BB
:1012500001F44031B2FA82F2D140491C4900B0FB9E
:10126000F1F07047083802400024F40040787D0116
:10127000043802402DE9F84FDFF8A88304460078CF
:10128000A8F1040710F0010FA7F104055AD0D8F80F
:10129000000000F00C00042809D0D8F8000000F08D
:1012A0000C0008280CD1386810F4800F08D028688A
:1012B00010F4003F46D06068002800F0AF8141E0A4
:1012C0006068B0F5803F04BF286840F480300AD0E1
:1012D00010B1B0F5A02F11D0286820F4803028601C
:1012E000286820F4802028606068D0B1FFF776FB82
:1012F0000646286810F4003F08D023E0286840F430
:1013000080202860286840F48030ECE7FFF766FB17
:10131000801B642800F22581286810F4003FF5D076
:1013200010E0FFF75BFB0646286810F4003F09D089
:10133000FFF754FB801B642800F21381286810F427
:10134000003FF5D1207810F0020F50D0D8F80000FF
:101350004FF0F80910F00C0F18D0D8F8000000F08A
:101360000C00082804BF386810F4800F0ED0E06825
:101370000028286828D040F001002860FFF72EFBE5
:101380000646286810F0020F09D011E0286810F016
:10139000020F1CBFE06801280AD000F03FB9FFF738
:1013A0001DFB801B02287DD8286810F0020FF6D0A4
:1013B000286899FAA9F22169B2FA82F220F0F800BD
:1013C00091400843286012E020F001002860FFF7F8
:1013D00005FB0646286810F0020F08D0FFF7FEFA5A
:1013E000801B02285ED8286810F0020FF6D1207802
:1013F00010F0080F33D0DFF8309260690028D9F878
:10140000000016D040F00100C9F80000FFF7E6FA2E
:101410000646D9F8000010F0020F20D1FFF7DEFADF
:10142000801B02283ED8D9F8000010F0020FF5D03A
:1014300015E020F00100C9F80000FFF7CFFA0646DA
:10144000D9F8000010F0020F09D0FFF7C7FA801B8F
:10145000022827D8D9F8000010F0020FF5D1207823
:1014600010F0040F63D07148016841F080510160B1
:1014700000686F4E00F080500090306840F480703B
:101480003060FFF7ABFA8146306810F4807F0BD1F3
:10149000FFF7A4FAA0EB0900642862D8306810F4C2
:1014A000807F00E05DE0F3D0A068624E012804BFB9
:1014B000306840F0010009D008B1052813D0306829
:1014C00020F001003060306820F004003060A06837
:1014D00041F2883AD0B1FFF781FA8146306810F0C6
:1014E000020F08D023E0306840F00400306030681C
:1014F00040F00100EAE7FFF771FAA0EB0900504560
:101500002FD8306810F0020FF5D010E0FFF766FA20
:101510008146306810F0020F09D0FFF75FFAA0EBA8
:10152000090050451DD8306810F0020FF5D1A069B0
:10153000E8B3D8F8001001F00C0108296ED0022899
:10154000286820F0807028600ED0FFF747FA044624
:10155000286810F0007F5ED0FFF740FA001B0228D9
:1015600055D90320BDE8F88FFFF738FA06462868FA
:1015700010F0007F08D0FFF731FA801B0228F0D866
:10158000286810F0007FF6D1D4E9070147F6C07251
:101590004FF0FF3392FAA2F20843616AB2FA82F284
:1015A0009140A26A03EB52024FF4403300E032E074
:1015B00093FAA3F3B3FA83F39A4011434FF07062A6
:1015C0000843E16A92FAA2F2B2FA82F291404FF035
:1015D000E0420843216B92FAA2F2B2FA82F2914001
:1015E00008433860286840F080702860FFF7F6F9FB
:1015F0000446286810F0007F0DD1FFF7EFF9001BBB
:101600000228AED8286810F0007FF6D003E02868E2
:1016100010F0007FA0D10020BDE8F88F0120BDE8C8
:10162000F88F000008380240743802404038024009
:1016300000700040703802404FF0E0210428086933
:101640000CBF40F0040020F0040008617047000067
:10165000401EB0F1807F24BF012070474FF0E02191
:101660004861F020044A82F8140D002088610720A8
:1016700008610020704700000FE000E070470000A4
:1016800070B501680446C8690A688B6810F00F0FCE
:101690004FF0200551D040F2011C13EA0C0F7DD011
:1016A00010F0010F18BF12F4807F07D04FF0010C2B
:1016B000C1F820C0E16E41F00101E16610F0020FB7
:1016C00018BF13F0010F08D0D4F800C00221CCF8E5
:1016D0002010E16E41F00401E16610F0040F18BF24
:1016E00013F0010F08D0D4F800C00421CCF820106A
:1016F000E16E41F00201E16610F0080F0CD002F03B
:10170000200103F00103194306D023680821196260
:10171000E16E41F00801E166E16E002908BF70BD8D
:1017200010F0200F1EBF12F0200F204600F029FD00
:10173000E06E10F0080F10D10AE010F0200F18BF73
:1017400012F0200F39D02046BDE8704000F019BDDE
:101750002068806810F0400F29D02068016821F4CB
:10176000907101602068816821F00101816084F836
:101770006A502068816811F0400F14D0816821F010
:1017800040018160606E70B12F490165606EFEF7A7
:10179000EAFF002808BF70BD606E00E00DE0016D3B
:1017A000BDE8704008472046FFF768FF70BD20463F
:1017B000FFF764FF0020E06670BD10F0800F18BFD7
:1017C00012F0800F2FD094F86900212818BF70BD47
:1017D000B4F85200A0B1A068B0F5805F04BF2069E2
:1017E0000028E06C16D000F10101E1642168007866
:1017F0008862B4F85200A0F10100A4F8520070BD54
:10180000086820F0800008602068016841F040010D
:10181000016070BD0088C0F308008862E06C00F1D0
:101820000200E064E5E710F0400F14BF12F0400F33
:1018300070BD20460A6822F040020A6084F86950B0
:1018400000F000F970BD00006F210008002804BFFF
:101850000120704710B5044690F8690028B90020AF
:1018600084F86800204600F029F8242084F86900F4
:101870002068016821F001010160204600F0C2FCEF
:10188000012808BF10BD606A00281CBF204600F078
:10189000D1FB2068416821F4904141602068816853
:1018A00021F02A0181602068016841F00101016096
:1018B0002046BDE8104000F02ABC000030B50446C8
:1018C000006887B0A0F18041B1F588311CBF07B036
:1018D00030BD1B48016841F001010160006800F063
:1018E000010005901748016841F01001016000688F
:1018F0000121154D00F0100005904FF4007000908C
:101900000220CDE901010390072069460490284692
:10191000FEF73CFF2815694600902846FEF736FF83
:101920002068016841F0200101602520FFF7D5FA09
:10193000032225201146FFF7DDFA07B030BD000075
:101940003038024044380240000002402DE9F84F90
:10195000044690F86A00984616460D4620286CD139
:10196000002D12BF002E0120BDE8F88F94F868000A
:10197000012862D0012084F868004FF00009C4F803
:101980006C90222084F86A00FFF728F8A4F85860C9
:101990008246A4F85A60FF21A068B0F5805F05D0A8
:1019A0007F2250B1B0F1805F0CD012E02069002896
:1019B00008BF40F2FF1002D109E02069E8B9A4F89D
:1019C0005C1006E02069002818BF3F2015D0A4F85D
:1019D0005C00B4F85C60F7B2B4F85A0000225346D9
:1019E000401EA4F85A0020212046CDF8008000F0C7
:1019F0005DFD28B10320BDE8F88FA4F85C20E8E77E
:101A0000A068B0F5805F04BF206900282068406AA4
:101A100019BF384005F8010B304025F8020BB4F827
:101A20005A000028D8D14FF0200084F86A004FF007
:101A3000000084F86890BDE8F88F4FF00200BDE820
:101A4000F88F70477047FEE74DF804ED012302461A
:101A500085B0084803A94FF47A7CCDE9001393219F
:101A6000CDF808C0FFF768F89DF80C0005B05DF8E8
:101A700004FB00005001022007B584B00A46012390
:101A800006A94FF47A7CCDF808C0CDE900130146D1
:101A90000448FFF723F900280CBF0120002007B0FD
:101AA0005DF804FB5001022001228021922010B534
:101AB000FFF7E2FF4FF4FA6000F0E4FD6C228121B1
:101AC0009220FFF7D9FF032280219220FFF7D4FF55
:101AD000182282219220FFF7CFFF02228721BDE842
:101AE00010409220FFF7C8BF01688A6912F0020F08
:101AF0001CBF00228A620068816911F0010F18BFC3
:101B00007047816941F00101816170472DE9F04121
:101B1000044600680D461646816911F0100F04BF97
:101B20000020BDE8F08180694FF000074FF02008E9
:101B300010F0200F16D1B5F1FF3F0ED025B1FEF702
:101B40004DFF801BA84208D984F8418084F8427078
:101B5000032084F84070BDE8F0812068806910F0AF
:101B6000200FE8D021681020C8612068C0F81C80D0
:101B70002046FFF7B9FF20684168074A11404160DD
:101B80000420606484F8418084F84270012084F865
:101B90004070BDE8F081000000E800FE2DE9F84348
:101BA000164604464FF400501F46DAB20090002358
:101BB0002046DDE9089800F069F84246494620468B
:101BC00000F0D6F818B1606C04280FD01FE0012F88
:101BD000F5B20ED02168300A886242464946204656
:101BE00000F0C6F828B1606C042810D10120BDE8CF
:101BF000F88320688562002240214B462046CDF8BC
:101C0000008000F059F8002808BFBDE8F8830320E1
:101C1000BDE8F8832DE9F843044616464FF400501A
:101C20001F46DAB20090C3022046DDE9089800F0B2
:101C30002DF842464946204600F09AF818B1606CEB
:101C400004280FD01FE0012FF5B20ED02168300A12
:101C5000886242464946204600F08AF828B1606C06
:101C6000042810D10120BDE8F88320688562002295
:101C700080214B462046CDF8008000F01DF800285A
:101C800008BFBDE8F8830320BDE8F88330B40068DE
:101C9000029CD0F804C0C1F30901064D41EA02419B
:101CA000194321430CEA050C41EA0C01416030BCA8
:101CB00070470000009800FC2DE9F04104460068E0
:101CC0001D461746069E8846806931EA00000CBF13
:101CD00001200020B8421CD1B5F1FF3F10D025B142
:101CE000FEF77CFE801BA8420AD9202084F8410020
:101CF000002084F8420084F840000320BDE8F08111
:101D00002068806938EA00000CBF01200020B8423A
:101D1000E2D00020BDE8F08170B5044600681646A8
:101D20000D46806910F0200F20D13246294620460A
:101D3000FFF7ECFE08B1012070BD25B1FEF74EFEA5
:101D4000801BA8420DD9606C40F020006064202008
:101D500084F84100002084F8420084F84000032009
:101D600070BD2068806910F0200FDED0002070BDAB
:101D700070B50446006816460D46806910F0020FE3
:101D800023D1324629462046FFF7C0FE08B1012084
:101D900070BDB5F1FF3F13D025B1FEF71FFE801BCC
:101DA000A8420DD9606C40F020006064202084F8C7
:101DB0004100002084F8420084F84000032070BDF8
:101DC0002068806910F0020FDBD0002070BD000099
:101DD0001D4810B586B0016841F0800101600068BF
:101DE00000F0800005901948016841F4800101600D
:101DF00000680124694600F48000059030200090BE
:101E00001220CDE90104032003900420049010481F
:101E1000FEF7BCFC10480F490160104941600021E9
:101E2000C0E90214016141618161C1610162FEF793
:101E30002FFE09480021FEF7D7FD07480021FEF7D5
:101E4000FEFD06B010BD00003038024040380240B0
:101E5000001C02400058004050010220684740200A
:101E6000104810B586B0016841F0020101600068B9
:101E700001210D4C00F0020005900320CDE9000186
:101E8000CDE9021069462046FEF780FC012220467B
:101E90001146FEF79DFD012220460221FEF798FD26
:101EA00006B010BD30380240000402407047704751
:101EB000F0B585B0012503A82B46D422CDE9000555
:101EC0001A4893214FF47A740294FEF735FE03A862
:101ED0009DF80C60CDE900051448D5220123029439
:101EE0009321FEF729FE124FD6229DF80C00012304
:101EF000932106EB0020388003A80294CDE9000569
:101F00000A48FEF719FE03A89DF80C60CDE900050C
:101F10000648D722012302949321FEF70DFE9DF877
:101F20000C0006EB0020788005B0F0BD50010220C7
:101F30001400022070470000DFF894C010B594B080
:101F4000DCF8004044F08054CCF80040DCF800C0DD
:101F50000CF0805CCDF848C0DFF878C0DCF80040B9
:101F600044F44044CCF80040DCF800C002240CF4F7
:101F7000404CCDF848C04FF0010CCDF800C04FF4F4
:101F8000803CCDF804C04FF4800CCDE90810CDE9B9
:101F90000A23CDE9064C6846FFF76CF900B1FEE76D
:101FA000FEF7ECFF00B1FEE70F20CDE90D040020A5
:101FB0000F904FF4A05010904FF4805011900721D3
:101FC0000DA8FFF719F8002804BF14B010BDFEE7F4
:101FD0004038024000700040FEF750BF0F480168D3
:101FE00041F4700101600E48016841F00101016097
:101FF0000C4A00211160026822F4102222F0807243
:102000000260031D084A1A60026822F480220260FE
:1020100006480160580606490860704788ED00E0F0
:102020000038024008380240103000240C380240CA
:1020300008ED00E090F8241011F0010F06D00168BF
:102040004A68836A22F400321A434A6090F82410E6
:1020500011F0020F06D001684A68C36A22F4803288
:102060001A434A6090F8241011F0040F06D001685A
:102070004A68036B22F480221A434A6090F82410C5
:1020800011F0080F06D001684A68436B22F4004241
:102090001A434A6090F8241011F0100F06D001681E
:1020A0008A68836B22F480521A438A6090F8241065
:1020B00011F0200F06D001688A68C36B22F4005229
:1020C0001A438A6090F8241011F0400F11D0016873
:1020D0004A68036C22F480121A434A60016CB1F51D
:1020E000801F06D101684A68436C22F4C0021A437B
:1020F0004A6090F8241011F0800F08BF7047016803
:102100004A68806C22F40022104348607047F8B59A
:1021100000260446C666FEF761FC07462068006894
:102120006FF07E4510F0080F08D000223B464FF4B8
:1021300000112046009500F0B9F968B920680068E0
:1021400010F0040F0AD000223B464FF480012046D5
:10215000009500F0ABF908B10320F8BD202084F809
:10216000690084F86A00002084F86860F8BD10B542
:10217000806B0021A0F85A10A0F85210FFF77EFAE9
:1021800010BD10B5B0F85C2090F86A300168222BC1
:1021900005D0886940F008008861022010BD83687E
:1021A000B3F5805F04BF0369002B23D0496A01EABD
:1021B0000202416D01F1010343650A70B0F85A1043
:1021C000A1F101010904090CA0F85A101CBF00205C
:1021D00010BD01680A6822F490720A6001688A687A
:1021E00022F001028A60202180F86A10FFF729FCA2
:1021F000002010BD436D496A11401980416D891C52
:102200004165DBE770B50446806810210022236930
:102210001546D4F81CC01843636943EA0C03034312
:102220002068D0F800C09D4E0CEA060C4CEA03036F
:10223000036020684368D4F80CC023F4405343EA99
:102240000C034360236AA06903432068D0F808C0E8
:102250002CF4306C4CEA030383602068904BA0F1AF
:10226000804CBCF5883C23D0A0F1804CBCF5884C58
:1022700029D0A0F1804CBCF5904C2FD0A0F1804C1F
:10228000BCF5984C35D0A0F1804CBCF5A04C3BD0AF
:10229000A0F1804CBCF58A3C44D0A0F1804CBCF548
:1022A000F04C4FD0A0F1804CBCF5F84C58D06CE00D
:1022B0001B6813F0030343D0012B63D0022B5FD0C4
:1022C000032B61D061E01B6813F00C0356D0042B84
:1022D00058D0082B54D00C2B56D056E01B6813F066
:1022E00030034BD0102B4DD0202B49D0302B4BD06E
:1022F0004BE01B6813F0C00340D0402B42D0802B32
:102300003ED0C02B40D040E01B6813F4407335D062
:10231000B3F5807F36D0B3F5007F31D0B3F5407F81
:1023200032D032E01B6813F4406309D0B3F5806FFC
:1023300028D0B3F5006F23D0B3F5406F24D024E04C
:10234000012122E01B6813F4405317D0B3F5805FDE
:1023500018D0B3F5005F13D0B3F5405F14D014E08C
:102360001B6813F4404309D0B3F5804F0AD0B3F58E
:10237000004F05D0B3F5404F06D006E0002104E041
:10238000022102E0042100E00821E369B3F5004FD7
:1023900008D009297FD2DFE801F046525E7E677ED1
:1023A0007E7E7400092935D2DFE801F0050F19346B
:1023B000213434342B00FEF7E1FE4100606801EB6C
:1023C0005001B1FBF0F082B225E0FEF7EFFE4100D4
:1023D000606801EB5001B1FBF0F082B21BE0606875
:1023E000304901EB5001B1FBF0F082B213E0FEF78F
:1023F000F5FE4100606801EB5001B1FBF0F082B2E4
:1024000009E060684FF4803101EB5001B1FBF0F05E
:1024100082B200E0012522F00F00C2F3420108431E
:102420002168C86038E0FEF7A9FE0146606801EB4C
:102430005001B1FBF0F0216880B2C8602CE0FEF7DB
:10244000B5FE0146606801EB5001B1FBF0F0216878
:1024500080B2C86020E06168134A02EB5102B2FB0F
:10246000F1F189B2C16017E0FEF7B8FE014660687D
:1024700001EB5001B1FBF0F0216880B2C8600BE0C5
:1024800009E061684FF4004202EB5102B2FBF1F146
:1024900089B2C16000E00125284670BDF369FFEFF5
:1024A000903802400048E8010024F4002DE9F04192
:1024B000044600681E461746069D8846C06931EAF4
:1024C00000000CBF01200020B84226D1B5F1FF3F2B
:1024D0001AD025B1FEF782FA801BA84214D32068D7
:1024E000016821F4D07101602068816821F0010148
:1024F0008160202084F8690084F86A00002084F854
:1025000068000320BDE8F0812068C06938EA000057
:102510000CBF01200020B842D8D00020BDE8F081D7
:102520001A4838B50068C06910F0200F28D0174845
:1025300001224FF47A736946FFF708FA144A1088AB
:1025400010F4004F1CD19DF8001010F4804F4FF094
:10255000000305D00A2908BF40F4004014D00EE063
:102560000D2908BF40F480400ED00A4CC0F30D0C7A
:10257000401C80B2C72804F80C10108000D91380CA
:102580000248FFF77DF838BD1080F9E7E00002202F
:102590000C00022018000220FEE730380A2801D281
:1025A00001207047002070477047000070B500267A
:1025B00094290EBF4FF480344FF41402B2FBF1F4AF
:1025C00050B1012808BFE40806D0022808BF24093A
:1025D00002D0032802D00DE025460BE0214A00205E
:1025E0001146E4FB0210204A850911460020E4FB55
:1025F00002108409FFF75CFC1C480188408801FB3D
:1026000004F100FB05F00A0C4FEA10431CBF9802CE
:10261000B0FBF2F6701C40089A289CBF42F24811A9
:1026200043F6715016D9C3289CBF42F6372145F6B0
:1026300030300FD9E6289CBF41F6EF0142F6B95081
:1026400008D9B0F58A7F99BF40F6DF7141F69A103C
:102650000021084602FB01F103FB101000F50040C9
:10266000000C70BD6D35788E511A1F991400022030
:1026700010B504460420FEF7DFFF0148046010BDDA
:1026800008000220F0B4002400289CBFF0BC704772
:102690000E494FF47A724FF0E026096801FB02F50B
:1026A000D6F814C00021B369B2699A42FCD026BFA3
:1026B000ACEB02073B449B1A19441346A942F3D3DF
:1026C000641C8442ECD3F0BC704700000800022078
:1026D0000349CA6912F0400FFBD0C2B28A62704748
:1026E00000100140FDF7FAFFFEF7D0FB092302229C
:1026F00019214FF4D870FFF71FFCD820FFF7B8FF5F
:102700004FF4E13000F02EF8FFF7AAFBFFF760FB73
:10271000FFF7CAF9D220FFF797F900F0F00108A0FF
:10272000FDF7E4FD94210220FFF740FF01460AA0D7
:10273000FDF7DCFD4FF4FA70FFF7A4FFF2E70000AD
:102740004C696768742053656E736F7249443A3000
:1027500078253032580A0D006C7578203D202564AC
:102760000A0D00000749064AC1E9002000208860E0
:10277000C860086188610C2048610846FFF766B8A8
:1027800000100140E00002204FF04070E1EE100A1E
:10279000704700000000000000000102030406076B
:1027A00008090000000001020304303132333435DF
:1027B000363738394142434445464030580030317D
:1027C0003233343536373839616263646566403098
:1027D0007800040000080000000000000002000172
:1027E000000010000428000800000220180000006B
:1027F000340200081C28000818000220E807000026
:10280000500200080024F400000000000000000056
:0C281000000000000000000000000000BC
:04000005080001F9F5
:00000001FF
